{
  "_format": "hh-sol-artifact-1",
  "contractName": "LTPuzzle",
  "sourceName": "contracts/lt-puzzle/LTPuzzle.sol",
  "abi": [
    {
      "inputs": [],
      "stateMutability": "nonpayable",
      "type": "constructor"
    },
    {
      "anonymous": false,
      "inputs": [
        {
          "indexed": false,
          "internalType": "address",
          "name": "previousAdmin",
          "type": "address"
        },
        {
          "indexed": false,
          "internalType": "address",
          "name": "newAdmin",
          "type": "address"
        }
      ],
      "name": "AdminChanged",
      "type": "event"
    },
    {
      "anonymous": false,
      "inputs": [
        {
          "indexed": true,
          "internalType": "address",
          "name": "owner",
          "type": "address"
        },
        {
          "indexed": true,
          "internalType": "address",
          "name": "approved",
          "type": "address"
        },
        {
          "indexed": true,
          "internalType": "uint256",
          "name": "tokenId",
          "type": "uint256"
        }
      ],
      "name": "Approval",
      "type": "event"
    },
    {
      "anonymous": false,
      "inputs": [
        {
          "indexed": true,
          "internalType": "address",
          "name": "owner",
          "type": "address"
        },
        {
          "indexed": true,
          "internalType": "address",
          "name": "operator",
          "type": "address"
        },
        {
          "indexed": false,
          "internalType": "bool",
          "name": "approved",
          "type": "bool"
        }
      ],
      "name": "ApprovalForAll",
      "type": "event"
    },
    {
      "anonymous": false,
      "inputs": [
        {
          "indexed": true,
          "internalType": "address",
          "name": "beacon",
          "type": "address"
        }
      ],
      "name": "BeaconUpgraded",
      "type": "event"
    },
    {
      "anonymous": false,
      "inputs": [
        {
          "indexed": false,
          "internalType": "uint8",
          "name": "version",
          "type": "uint8"
        }
      ],
      "name": "Initialized",
      "type": "event"
    },
    {
      "anonymous": false,
      "inputs": [
        {
          "indexed": true,
          "internalType": "bytes32",
          "name": "role",
          "type": "bytes32"
        },
        {
          "indexed": true,
          "internalType": "bytes32",
          "name": "previousAdminRole",
          "type": "bytes32"
        },
        {
          "indexed": true,
          "internalType": "bytes32",
          "name": "newAdminRole",
          "type": "bytes32"
        }
      ],
      "name": "RoleAdminChanged",
      "type": "event"
    },
    {
      "anonymous": false,
      "inputs": [
        {
          "indexed": true,
          "internalType": "bytes32",
          "name": "role",
          "type": "bytes32"
        },
        {
          "indexed": true,
          "internalType": "address",
          "name": "account",
          "type": "address"
        },
        {
          "indexed": true,
          "internalType": "address",
          "name": "sender",
          "type": "address"
        }
      ],
      "name": "RoleGranted",
      "type": "event"
    },
    {
      "anonymous": false,
      "inputs": [
        {
          "indexed": true,
          "internalType": "bytes32",
          "name": "role",
          "type": "bytes32"
        },
        {
          "indexed": true,
          "internalType": "address",
          "name": "account",
          "type": "address"
        },
        {
          "indexed": true,
          "internalType": "address",
          "name": "sender",
          "type": "address"
        }
      ],
      "name": "RoleRevoked",
      "type": "event"
    },
    {
      "anonymous": false,
      "inputs": [
        {
          "indexed": true,
          "internalType": "address",
          "name": "publisher",
          "type": "address"
        },
        {
          "indexed": false,
          "internalType": "string",
          "name": "oldValue",
          "type": "string"
        },
        {
          "indexed": false,
          "internalType": "string",
          "name": "newValue",
          "type": "string"
        }
      ],
      "name": "SetExternalLink",
      "type": "event"
    },
    {
      "anonymous": false,
      "inputs": [
        {
          "indexed": true,
          "internalType": "address",
          "name": "from",
          "type": "address"
        },
        {
          "indexed": true,
          "internalType": "address",
          "name": "to",
          "type": "address"
        },
        {
          "indexed": true,
          "internalType": "uint256",
          "name": "tokenId",
          "type": "uint256"
        }
      ],
      "name": "Transfer",
      "type": "event"
    },
    {
      "anonymous": false,
      "inputs": [
        {
          "indexed": true,
          "internalType": "address",
          "name": "implementation",
          "type": "address"
        }
      ],
      "name": "Upgraded",
      "type": "event"
    },
    {
      "inputs": [],
      "name": "DEFAULT_ADMIN_ROLE",
      "outputs": [
        {
          "internalType": "bytes32",
          "name": "",
          "type": "bytes32"
        }
      ],
      "stateMutability": "view",
      "type": "function"
    },
    {
      "inputs": [],
      "name": "GAME_ROLE",
      "outputs": [
        {
          "internalType": "bytes32",
          "name": "",
          "type": "bytes32"
        }
      ],
      "stateMutability": "view",
      "type": "function"
    },
    {
      "inputs": [],
      "name": "UPGRADER_ROLE",
      "outputs": [
        {
          "internalType": "bytes32",
          "name": "",
          "type": "bytes32"
        }
      ],
      "stateMutability": "view",
      "type": "function"
    },
    {
      "inputs": [
        {
          "internalType": "address",
          "name": "to",
          "type": "address"
        },
        {
          "internalType": "uint256",
          "name": "tokenId",
          "type": "uint256"
        }
      ],
      "name": "approve",
      "outputs": [],
      "stateMutability": "nonpayable",
      "type": "function"
    },
    {
      "inputs": [
        {
          "internalType": "address",
          "name": "owner",
          "type": "address"
        }
      ],
      "name": "balanceOf",
      "outputs": [
        {
          "internalType": "uint256",
          "name": "",
          "type": "uint256"
        }
      ],
      "stateMutability": "view",
      "type": "function"
    },
    {
      "inputs": [],
      "name": "contractURI",
      "outputs": [
        {
          "internalType": "string",
          "name": "cURI",
          "type": "string"
        }
      ],
      "stateMutability": "view",
      "type": "function"
    },
    {
      "inputs": [
        {
          "internalType": "uint256",
          "name": "nonce",
          "type": "uint256"
        },
        {
          "components": [
            {
              "internalType": "string",
              "name": "title",
              "type": "string"
            },
            {
              "internalType": "string",
              "name": "description",
              "type": "string"
            },
            {
              "internalType": "string",
              "name": "explanation",
              "type": "string"
            }
          ],
          "internalType": "struct ILTPuzzle.Puzzle",
          "name": "puzzle",
          "type": "tuple"
        }
      ],
      "name": "generatePuzzle",
      "outputs": [],
      "stateMutability": "nonpayable",
      "type": "function"
    },
    {
      "inputs": [
        {
          "internalType": "uint256",
          "name": "tokenId",
          "type": "uint256"
        }
      ],
      "name": "getApproved",
      "outputs": [
        {
          "internalType": "address",
          "name": "",
          "type": "address"
        }
      ],
      "stateMutability": "view",
      "type": "function"
    },
    {
      "inputs": [],
      "name": "getExternalLink",
      "outputs": [
        {
          "internalType": "string",
          "name": "returnValue",
          "type": "string"
        }
      ],
      "stateMutability": "view",
      "type": "function"
    },
    {
      "inputs": [
        {
          "internalType": "uint256",
          "name": "nonce",
          "type": "uint256"
        }
      ],
      "name": "getNonceToTokenID",
      "outputs": [
        {
          "internalType": "uint256",
          "name": "returnValue",
          "type": "uint256"
        }
      ],
      "stateMutability": "view",
      "type": "function"
    },
    {
      "inputs": [],
      "name": "getPuzzles",
      "outputs": [
        {
          "components": [
            {
              "internalType": "string",
              "name": "title",
              "type": "string"
            },
            {
              "internalType": "string",
              "name": "description",
              "type": "string"
            },
            {
              "internalType": "string",
              "name": "explanation",
              "type": "string"
            }
          ],
          "internalType": "struct ILTPuzzle.Puzzle[]",
          "name": "returnValue",
          "type": "tuple[]"
        }
      ],
      "stateMutability": "view",
      "type": "function"
    },
    {
      "inputs": [
        {
          "internalType": "bytes32",
          "name": "role",
          "type": "bytes32"
        }
      ],
      "name": "getRoleAdmin",
      "outputs": [
        {
          "internalType": "bytes32",
          "name": "",
          "type": "bytes32"
        }
      ],
      "stateMutability": "view",
      "type": "function"
    },
    {
      "inputs": [
        {
          "internalType": "bytes32",
          "name": "role",
          "type": "bytes32"
        },
        {
          "internalType": "uint256",
          "name": "index",
          "type": "uint256"
        }
      ],
      "name": "getRoleMember",
      "outputs": [
        {
          "internalType": "address",
          "name": "",
          "type": "address"
        }
      ],
      "stateMutability": "view",
      "type": "function"
    },
    {
      "inputs": [
        {
          "internalType": "bytes32",
          "name": "role",
          "type": "bytes32"
        }
      ],
      "name": "getRoleMemberCount",
      "outputs": [
        {
          "internalType": "uint256",
          "name": "",
          "type": "uint256"
        }
      ],
      "stateMutability": "view",
      "type": "function"
    },
    {
      "inputs": [],
      "name": "getTotalSupply",
      "outputs": [
        {
          "internalType": "uint256",
          "name": "returnValue",
          "type": "uint256"
        }
      ],
      "stateMutability": "view",
      "type": "function"
    },
    {
      "inputs": [
        {
          "internalType": "bytes32",
          "name": "role",
          "type": "bytes32"
        },
        {
          "internalType": "address",
          "name": "account",
          "type": "address"
        }
      ],
      "name": "grantRole",
      "outputs": [],
      "stateMutability": "nonpayable",
      "type": "function"
    },
    {
      "inputs": [
        {
          "internalType": "bytes32",
          "name": "role",
          "type": "bytes32"
        },
        {
          "internalType": "address",
          "name": "account",
          "type": "address"
        }
      ],
      "name": "hasRole",
      "outputs": [
        {
          "internalType": "bool",
          "name": "",
          "type": "bool"
        }
      ],
      "stateMutability": "view",
      "type": "function"
    },
    {
      "inputs": [],
      "name": "initialize",
      "outputs": [],
      "stateMutability": "nonpayable",
      "type": "function"
    },
    {
      "inputs": [
        {
          "internalType": "address",
          "name": "owner",
          "type": "address"
        },
        {
          "internalType": "address",
          "name": "operator",
          "type": "address"
        }
      ],
      "name": "isApprovedForAll",
      "outputs": [
        {
          "internalType": "bool",
          "name": "",
          "type": "bool"
        }
      ],
      "stateMutability": "view",
      "type": "function"
    },
    {
      "inputs": [
        {
          "internalType": "uint256",
          "name": "tokenId",
          "type": "uint256"
        }
      ],
      "name": "mint",
      "outputs": [],
      "stateMutability": "nonpayable",
      "type": "function"
    },
    {
      "inputs": [],
      "name": "name",
      "outputs": [
        {
          "internalType": "string",
          "name": "",
          "type": "string"
        }
      ],
      "stateMutability": "view",
      "type": "function"
    },
    {
      "inputs": [
        {
          "internalType": "address",
          "name": "operator",
          "type": "address"
        },
        {
          "internalType": "address",
          "name": "from",
          "type": "address"
        },
        {
          "internalType": "uint256",
          "name": "tokenId",
          "type": "uint256"
        },
        {
          "internalType": "bytes",
          "name": "data",
          "type": "bytes"
        }
      ],
      "name": "onERC721Received",
      "outputs": [
        {
          "internalType": "bytes4",
          "name": "returnValue",
          "type": "bytes4"
        }
      ],
      "stateMutability": "pure",
      "type": "function"
    },
    {
      "inputs": [
        {
          "internalType": "uint256",
          "name": "tokenId",
          "type": "uint256"
        }
      ],
      "name": "ownerOf",
      "outputs": [
        {
          "internalType": "address",
          "name": "",
          "type": "address"
        }
      ],
      "stateMutability": "view",
      "type": "function"
    },
    {
      "inputs": [],
      "name": "proxiableUUID",
      "outputs": [
        {
          "internalType": "bytes32",
          "name": "",
          "type": "bytes32"
        }
      ],
      "stateMutability": "view",
      "type": "function"
    },
    {
      "inputs": [
        {
          "internalType": "bytes32",
          "name": "role",
          "type": "bytes32"
        },
        {
          "internalType": "address",
          "name": "account",
          "type": "address"
        }
      ],
      "name": "renounceRole",
      "outputs": [],
      "stateMutability": "nonpayable",
      "type": "function"
    },
    {
      "inputs": [
        {
          "internalType": "bytes32",
          "name": "role",
          "type": "bytes32"
        },
        {
          "internalType": "address",
          "name": "account",
          "type": "address"
        }
      ],
      "name": "revokeRole",
      "outputs": [],
      "stateMutability": "nonpayable",
      "type": "function"
    },
    {
      "inputs": [
        {
          "internalType": "address",
          "name": "from",
          "type": "address"
        },
        {
          "internalType": "address",
          "name": "to",
          "type": "address"
        },
        {
          "internalType": "uint256",
          "name": "tokenId",
          "type": "uint256"
        }
      ],
      "name": "safeTransferFrom",
      "outputs": [],
      "stateMutability": "nonpayable",
      "type": "function"
    },
    {
      "inputs": [
        {
          "internalType": "address",
          "name": "from",
          "type": "address"
        },
        {
          "internalType": "address",
          "name": "to",
          "type": "address"
        },
        {
          "internalType": "uint256",
          "name": "tokenId",
          "type": "uint256"
        },
        {
          "internalType": "bytes",
          "name": "data",
          "type": "bytes"
        }
      ],
      "name": "safeTransferFrom",
      "outputs": [],
      "stateMutability": "nonpayable",
      "type": "function"
    },
    {
      "inputs": [
        {
          "internalType": "address",
          "name": "operator",
          "type": "address"
        },
        {
          "internalType": "bool",
          "name": "approved",
          "type": "bool"
        }
      ],
      "name": "setApprovalForAll",
      "outputs": [],
      "stateMutability": "nonpayable",
      "type": "function"
    },
    {
      "inputs": [
        {
          "internalType": "string",
          "name": "newValue",
          "type": "string"
        }
      ],
      "name": "setExternalLink",
      "outputs": [],
      "stateMutability": "nonpayable",
      "type": "function"
    },
    {
      "inputs": [
        {
          "internalType": "bytes4",
          "name": "interfaceId",
          "type": "bytes4"
        }
      ],
      "name": "supportsInterface",
      "outputs": [
        {
          "internalType": "bool",
          "name": "",
          "type": "bool"
        }
      ],
      "stateMutability": "view",
      "type": "function"
    },
    {
      "inputs": [],
      "name": "symbol",
      "outputs": [
        {
          "internalType": "string",
          "name": "",
          "type": "string"
        }
      ],
      "stateMutability": "view",
      "type": "function"
    },
    {
      "inputs": [
        {
          "internalType": "uint256",
          "name": "tokenId",
          "type": "uint256"
        }
      ],
      "name": "tokenURI",
      "outputs": [
        {
          "internalType": "string",
          "name": "uri",
          "type": "string"
        }
      ],
      "stateMutability": "view",
      "type": "function"
    },
    {
      "inputs": [
        {
          "internalType": "address",
          "name": "from",
          "type": "address"
        },
        {
          "internalType": "address",
          "name": "to",
          "type": "address"
        },
        {
          "internalType": "uint256",
          "name": "tokenId",
          "type": "uint256"
        }
      ],
      "name": "transferFrom",
      "outputs": [],
      "stateMutability": "nonpayable",
      "type": "function"
    },
    {
      "inputs": [
        {
          "internalType": "address",
          "name": "newImplementation",
          "type": "address"
        }
      ],
      "name": "upgradeTo",
      "outputs": [],
      "stateMutability": "nonpayable",
      "type": "function"
    },
    {
      "inputs": [
        {
          "internalType": "address",
          "name": "newImplementation",
          "type": "address"
        },
        {
          "internalType": "bytes",
          "name": "data",
          "type": "bytes"
        }
      ],
      "name": "upgradeToAndCall",
      "outputs": [],
      "stateMutability": "payable",
      "type": "function"
    }
  ],
  "bytecode": "0x60a0604052306080523480156200001557600080fd5b506200002062000026565b620000e7565b600054610100900460ff1615620000935760405162461bcd60e51b815260206004820152602760248201527f496e697469616c697a61626c653a20636f6e747261637420697320696e697469604482015266616c697a696e6760c81b606482015260840160405180910390fd5b60005460ff90811614620000e5576000805460ff191660ff9081179091556040519081527f7f26b83ff96e1f2b6a682f133852f6798a09c465da95921460cefb38474024989060200160405180910390a15b565b6080516139966200011f60003960008181610ac601528181610b0601528181610bc001528181610c000152610c8f01526139966000f3fe60806040526004361061020f5760003560e01c80638aed6c3f11610118578063bec762b1116100a0578063d547741f1161006f578063d547741f1461063c578063e8a3d4851461065c578063e985e9c514610671578063f72c0d8b146106ba578063fdd95ca0146106ee57600080fd5b8063bec762b1146105c6578063c4e41b22146105e6578063c87b56dd146105fc578063ca15c8731461061c57600080fd5b8063a0712d68116100e7578063a0712d681461051d578063a217fddf1461053d578063a22cb46514610552578063ab40070614610572578063b88d4fde146105a657600080fd5b80638aed6c3f146104b35780639010d07c146104c857806391d14854146104e857806395d89b411461050857600080fd5b80632f2ff15d1161019b5780634f1ef2861161016a5780634f1ef2861461043657806352d1902d146104495780636352211e1461045e57806370a082311461047e5780638129fc1c1461049e57600080fd5b80632f2ff15d146103b657806336568abe146103d65780633659cfe6146103f657806342842e0e1461041657600080fd5b8063095ea7b3116101e2578063095ea7b3146102df578063150b7a02146103015780631f9179211461034657806323b872dd14610366578063248a9ca31461038657600080fd5b806301ffc9a71461021457806306fdde0314610249578063077527671461026b578063081812fc146102a7575b600080fd5b34801561022057600080fd5b5061023461022f36600461297b565b610710565b60405190151581526020015b60405180910390f35b34801561025557600080fd5b5061025e610721565b60405161024091906129e8565b34801561027757600080fd5b506102996102863660046129fb565b6000908152610160602052604090205490565b604051908152602001610240565b3480156102b357600080fd5b506102c76102c23660046129fb565b6107b3565b6040516001600160a01b039091168152602001610240565b3480156102eb57600080fd5b506102ff6102fa366004612a30565b6107da565b005b34801561030d57600080fd5b5061032d61031c366004612a5a565b50630a85bd0160e11b949350505050565b6040516001600160e01b03199091168152602001610240565b34801561035257600080fd5b506102ff610361366004612bc1565b6108f4565b34801561037257600080fd5b506102ff610381366004612bf6565b6109e8565b34801561039257600080fd5b506102996103a13660046129fb565b60009081526097602052604090206001015490565b3480156103c257600080fd5b506102ff6103d1366004612c32565b610a19565b3480156103e257600080fd5b506102ff6103f1366004612c32565b610a3e565b34801561040257600080fd5b506102ff610411366004612c5e565b610abc565b34801561042257600080fd5b506102ff610431366004612bf6565b610b9b565b6102ff610444366004612c79565b610bb6565b34801561045557600080fd5b50610299610c82565b34801561046a57600080fd5b506102c76104793660046129fb565b610d35565b34801561048a57600080fd5b50610299610499366004612c5e565b610d95565b3480156104aa57600080fd5b506102ff610e1b565b3480156104bf57600080fd5b5061025e610fd7565b3480156104d457600080fd5b506102c76104e3366004612cc7565b610fe7565b3480156104f457600080fd5b50610234610503366004612c32565b611006565b34801561051457600080fd5b5061025e611031565b34801561052957600080fd5b506102ff6105383660046129fb565b611040565b34801561054957600080fd5b50610299600081565b34801561055e57600080fd5b506102ff61056d366004612ce9565b61110b565b34801561057e57600080fd5b506102997f6a64baf327d646d1bca72653e2a075d15fd6ac6d8cbd7f6ee03fc55875e0fa8881565b3480156105b257600080fd5b506102ff6105c1366004612d25565b611116565b3480156105d257600080fd5b506102ff6105e1366004612d8d565b61114e565b3480156105f257600080fd5b5061016154610299565b34801561060857600080fd5b5061025e6106173660046129fb565b611271565b34801561062857600080fd5b506102996106373660046129fb565b611409565b34801561064857600080fd5b506102ff610657366004612c32565b611420565b34801561066857600080fd5b5061025e611445565b34801561067d57600080fd5b5061023461068c366004612e4e565b6001600160a01b039182166000908152606a6020908152604080832093909416825291909152205460ff1690565b3480156106c657600080fd5b506102997f189ab7a9244df0848122154315af71fe140f3db0fe014031783b0946b8c9d2e381565b3480156106fa57600080fd5b506107036114a6565b6040516102409190612e78565b600061071b82611742565b92915050565b60606065805461073090612f19565b80601f016020809104026020016040519081016040528092919081815260200182805461075c90612f19565b80156107a95780601f1061077e576101008083540402835291602001916107a9565b820191906000526020600020905b81548152906001019060200180831161078c57829003601f168201915b5050505050905090565b60006107be82611767565b506000908152606960205260409020546001600160a01b031690565b60006107e582610d35565b9050806001600160a01b0316836001600160a01b0316036108575760405162461bcd60e51b815260206004820152602160248201527f4552433732313a20617070726f76616c20746f2063757272656e74206f776e656044820152603960f91b60648201526084015b60405180910390fd5b336001600160a01b03821614806108735750610873813361068c565b6108e55760405162461bcd60e51b815260206004820152603d60248201527f4552433732313a20617070726f76652063616c6c6572206973206e6f7420746f60448201527f6b656e206f776e6572206f7220617070726f76656420666f7220616c6c000000606482015260840161084e565b6108ef83836117c6565b505050565b60006108ff81611834565b600061015f805461090f90612f19565b80601f016020809104026020016040519081016040528092919081815260200182805461093b90612f19565b80156109885780601f1061095d57610100808354040283529160200191610988565b820191906000526020600020905b81548152906001019060200180831161096b57829003601f168201915b505050505090508261015f908161099f9190612fa1565b50336001600160a01b03167ffceab947acbd3281d41fa085ba6d9503467fabd9e3d96e3ee0dbf6f8b04a9ca482856040516109db929190613061565b60405180910390a2505050565b6109f2338261183e565b610a0e5760405162461bcd60e51b815260040161084e9061308f565b6108ef8383836118bd565b600082815260976020526040902060010154610a3481611834565b6108ef8383611a21565b6001600160a01b0381163314610aae5760405162461bcd60e51b815260206004820152602f60248201527f416363657373436f6e74726f6c3a2063616e206f6e6c792072656e6f756e636560448201526e103937b632b9903337b91039b2b63360891b606482015260840161084e565b610ab88282611a43565b5050565b6001600160a01b037f0000000000000000000000000000000000000000000000000000000000000000163003610b045760405162461bcd60e51b815260040161084e906130dc565b7f00000000000000000000000000000000000000000000000000000000000000006001600160a01b0316610b4d6000805160206138da833981519152546001600160a01b031690565b6001600160a01b031614610b735760405162461bcd60e51b815260040161084e90613128565b610b7c81611a65565b60408051600080825260208201909252610b9891839190611a8f565b50565b6108ef83838360405180602001604052806000815250611116565b6001600160a01b037f0000000000000000000000000000000000000000000000000000000000000000163003610bfe5760405162461bcd60e51b815260040161084e906130dc565b7f00000000000000000000000000000000000000000000000000000000000000006001600160a01b0316610c476000805160206138da833981519152546001600160a01b031690565b6001600160a01b031614610c6d5760405162461bcd60e51b815260040161084e90613128565b610c7682611a65565b610ab882826001611a8f565b6000306001600160a01b037f00000000000000000000000000000000000000000000000000000000000000001614610d225760405162461bcd60e51b815260206004820152603860248201527f555550535570677261646561626c653a206d757374206e6f742062652063616c60448201527f6c6564207468726f7567682064656c656761746563616c6c0000000000000000606482015260840161084e565b506000805160206138da83398151915290565b6000818152606760205260408120546001600160a01b03168061071b5760405162461bcd60e51b8152602060048201526018602482015277115490cdcc8c4e881a5b9d985b1a59081d1bdad95b88125160421b604482015260640161084e565b60006001600160a01b038216610dff5760405162461bcd60e51b815260206004820152602960248201527f4552433732313a2061646472657373207a65726f206973206e6f7420612076616044820152683634b21037bbb732b960b91b606482015260840161084e565b506001600160a01b031660009081526068602052604090205490565b600054610100900460ff1615808015610e3b5750600054600160ff909116105b80610e555750303b158015610e55575060005460ff166001145b610eb85760405162461bcd60e51b815260206004820152602e60248201527f496e697469616c697a61626c653a20636f6e747261637420697320616c72656160448201526d191e481a5b9a5d1a585b1a5e995960921b606482015260840161084e565b6000805460ff191660011790558015610edb576000805461ff0019166101001790555b610f20604051806040016040528060088152602001674c5450757a7a6c6560c01b8152506040518060400160405280600381526020016204c54560ec1b815250611bfa565b610f28611c2b565b610f30611c2b565b610f3b600033611a21565b610f657f189ab7a9244df0848122154315af71fe140f3db0fe014031783b0946b8c9d2e333611a21565b610f8f7f6a64baf327d646d1bca72653e2a075d15fd6ac6d8cbd7f6ee03fc55875e0fa8833611a21565b8015610b98576000805461ff0019169055604051600181527f7f26b83ff96e1f2b6a682f133852f6798a09c465da95921460cefb38474024989060200160405180910390a150565b606061015f805461073090612f19565b600082815260c960205260408120610fff9083611c54565b9392505050565b60009182526097602090815260408084206001600160a01b0393909316845291905290205460ff1690565b60606066805461073090612f19565b806000036110905760405162461bcd60e51b815260206004820152601960248201527f4c5450757a7a6c653a20496e76616c696420746f6b656e496400000000000000604482015260640161084e565b3061109a82610d35565b6001600160a01b0316146110f05760405162461bcd60e51b815260206004820152601860248201527f4c5450757a7a6c653a20416c7265616479206d696e7465640000000000000000604482015260640161084e565b610b9830338360405180602001604052806000815250611c60565b610ab8338383611c93565b611120338361183e565b61113c5760405162461bcd60e51b815260040161084e9061308f565b61114884848484611c60565b50505050565b7f6a64baf327d646d1bca72653e2a075d15fd6ac6d8cbd7f6ee03fc55875e0fa8861117881611834565b60008381526101606020526040902054156111d55760405162461bcd60e51b815260206004820152601f60248201527f4c5450757a7a6c653a206e6f6e636520697320616c7265616479207573656400604482015260640161084e565b610161546000848152610160602090815260408083208490558551848452610162909252909120906112079082612fa1565b5060208084015160008381526101639092526040909120906112299082612fa1565b506040808401516000838152610164602052919091209061124a9082612fa1565b506112553082611d61565b61016180549060006112668361318a565b919050555050505050565b606081611295816000908152606760205260409020546001600160a01b0316151590565b6112e15760405162461bcd60e51b815260206004820152601a60248201527f5468697320746f6b656e20646f6573206e6f742065786973742e000000000000604482015260640161084e565b60008381526101626020526040812080546112fb90612f19565b80601f016020809104026020016040519081016040528092919081815260200182805461132790612f19565b80156113745780601f1061134957610100808354040283529160200191611374565b820191906000526020600020905b81548152906001019060200180831161135757829003601f168201915b505050600087815261016360205260408120939450926113da925084915061139b82611d7b565b61015f61016460008b81526020019081526020016000206040516020016113c6959493929190613216565b604051602081830303815290604052611dce565b90506000816040516020016113ef9190613333565b60408051601f198184030181529190529695505050505050565b600081815260c96020526040812061071b90611f21565b60008281526097602052604090206001015461143b81611834565b6108ef8383611a43565b60606000611451610721565b90506000611479828361146385611d7b565b61015f6040516020016113c69493929190613378565b905060008160405160200161148e9190613333565b60408051601f19818403018152919052949350505050565b610161546060908067ffffffffffffffff8111156114c6576114c6612af5565b60405190808252806020026020018201604052801561151b57816020015b61150860405180606001604052806060815260200160608152602001606081525090565b8152602001906001900390816114e45790505b50915060005b8181101561173d5760405180606001604052806101626000848152602001908152602001600020805461155390612f19565b80601f016020809104026020016040519081016040528092919081815260200182805461157f90612f19565b80156115cc5780601f106115a1576101008083540402835291602001916115cc565b820191906000526020600020905b8154815290600101906020018083116115af57829003601f168201915b50505050508152602001610163600084815260200190815260200160002080546115f590612f19565b80601f016020809104026020016040519081016040528092919081815260200182805461162190612f19565b801561166e5780601f106116435761010080835404028352916020019161166e565b820191906000526020600020905b81548152906001019060200180831161165157829003601f168201915b505050505081526020016101646000848152602001908152602001600020805461169790612f19565b80601f01602080910402602001604051908101604052809291908181526020018280546116c390612f19565b80156117105780601f106116e557610100808354040283529160200191611710565b820191906000526020600020905b8154815290600101906020018083116116f357829003601f168201915b505050505081525083828151811061172a5761172a613469565b6020908102919091010152600101611521565b505090565b60006001600160e01b03198216635a05180f60e01b148061071b575061071b82611f2b565b6000818152606760205260409020546001600160a01b0316610b985760405162461bcd60e51b8152602060048201526018602482015277115490cdcc8c4e881a5b9d985b1a59081d1bdad95b88125160421b604482015260640161084e565b600081815260696020526040902080546001600160a01b0319166001600160a01b03841690811790915581906117fb82610d35565b6001600160a01b03167f8c5be1e5ebec7d5bd14f71427d1e84f3dd0314c0f7b2291e5b200ac8c7c3b92560405160405180910390a45050565b610b988133611f50565b60008061184a83610d35565b9050806001600160a01b0316846001600160a01b0316148061189157506001600160a01b038082166000908152606a602090815260408083209388168352929052205460ff165b806118b55750836001600160a01b03166118aa846107b3565b6001600160a01b0316145b949350505050565b826001600160a01b03166118d082610d35565b6001600160a01b0316146118f65760405162461bcd60e51b815260040161084e9061347f565b6001600160a01b0382166119585760405162461bcd60e51b8152602060048201526024808201527f4552433732313a207472616e7366657220746f20746865207a65726f206164646044820152637265737360e01b606482015260840161084e565b826001600160a01b031661196b82610d35565b6001600160a01b0316146119915760405162461bcd60e51b815260040161084e9061347f565b600081815260696020908152604080832080546001600160a01b03199081169091556001600160a01b0387811680865260688552838620805460001901905590871680865283862080546001019055868652606790945282852080549092168417909155905184937fddf252ad1be2c89b69c2b068fc378daa952ba7f163c4a11628f55a4df523b3ef91a4505050565b611a2b8282611fa9565b600082815260c9602052604090206108ef908261202f565b611a4d8282612044565b600082815260c9602052604090206108ef90826120ab565b7f189ab7a9244df0848122154315af71fe140f3db0fe014031783b0946b8c9d2e3610ab881611834565b7f4910fdfa16fed3260ed0e7147f7cc6da11a60208b5b9406d12a635614ffd91435460ff1615611ac2576108ef836120c0565b826001600160a01b03166352d1902d6040518163ffffffff1660e01b8152600401602060405180830381865afa925050508015611b1c575060408051601f3d908101601f19168201909252611b19918101906134c4565b60015b611b7f5760405162461bcd60e51b815260206004820152602e60248201527f45524331393637557067726164653a206e657720696d706c656d656e7461746960448201526d6f6e206973206e6f74205555505360901b606482015260840161084e565b6000805160206138da8339815191528114611bee5760405162461bcd60e51b815260206004820152602960248201527f45524331393637557067726164653a20756e737570706f727465642070726f786044820152681a58589b195555525160ba1b606482015260840161084e565b506108ef83838361215c565b600054610100900460ff16611c215760405162461bcd60e51b815260040161084e906134dd565b610ab88282612181565b600054610100900460ff16611c525760405162461bcd60e51b815260040161084e906134dd565b565b6000610fff83836121c1565b611c6b8484846118bd565b611c77848484846121eb565b6111485760405162461bcd60e51b815260040161084e90613528565b816001600160a01b0316836001600160a01b031603611cf45760405162461bcd60e51b815260206004820152601960248201527f4552433732313a20617070726f766520746f2063616c6c657200000000000000604482015260640161084e565b6001600160a01b038381166000818152606a6020908152604080832094871680845294825291829020805460ff191686151590811790915591519182527f17307eab39ab6107e8899845ad3d59bd9653f200f220920489ca2b5937696c31910160405180910390a3505050565b610ab88282604051806020016040528060008152506122ec565b606081604051602001611d8e919061357a565b6040516020818303038152906040529050611da881611dce565b604051602001611db89190613727565b6040516020818303038152906040529050919050565b60608151600003611ded57505060408051602081019091526000815290565b60006040518060600160405280604081526020016138fa6040913990506000600384516002611e1c919061376c565b611e26919061377f565b611e319060046137a1565b67ffffffffffffffff811115611e4957611e49612af5565b6040519080825280601f01601f191660200182016040528015611e73576020820181803683370190505b509050600182016020820185865187015b80821015611edf576003820191508151603f8160121c168501518453600184019350603f81600c1c168501518453600184019350603f8160061c168501518453600184019350603f8116850151845350600183019250611e84565b5050600386510660018114611efb5760028114611f0e57611f16565b603d6001830353603d6002830353611f16565b603d60018303535b509195945050505050565b600061071b825490565b60006001600160e01b03198216637965db0b60e01b148061071b575061071b8261231f565b611f5a8282611006565b610ab857611f678161236f565b611f72836020612381565b604051602001611f839291906137b8565b60408051601f198184030181529082905262461bcd60e51b825261084e916004016129e8565b611fb38282611006565b610ab85760008281526097602090815260408083206001600160a01b03851684529091529020805460ff19166001179055611feb3390565b6001600160a01b0316816001600160a01b0316837f2f8788117e7eff1d82e926ec794901d17c78024a50270940304540a733656f0d60405160405180910390a45050565b6000610fff836001600160a01b03841661251d565b61204e8282611006565b15610ab85760008281526097602090815260408083206001600160a01b0385168085529252808320805460ff1916905551339285917ff6391f5c32d9c69d2a47ea670b442974b53935d1edc7fd64eb21e047a839171b9190a45050565b6000610fff836001600160a01b03841661256c565b6001600160a01b0381163b61212d5760405162461bcd60e51b815260206004820152602d60248201527f455243313936373a206e657720696d706c656d656e746174696f6e206973206e60448201526c1bdd08184818dbdb9d1c9858dd609a1b606482015260840161084e565b6000805160206138da83398151915280546001600160a01b0319166001600160a01b0392909216919091179055565b6121658361265f565b6000825111806121725750805b156108ef57611148838361269f565b600054610100900460ff166121a85760405162461bcd60e51b815260040161084e906134dd565b60656121b48382612fa1565b5060666108ef8282612fa1565b60008260000182815481106121d8576121d8613469565b9060005260206000200154905092915050565b60006001600160a01b0384163b156122e157604051630a85bd0160e11b81526001600160a01b0385169063150b7a029061222f90339089908890889060040161382d565b6020604051808303816000875af192505050801561226a575060408051601f3d908101601f1916820190925261226791810190613860565b60015b6122c7573d808015612298576040519150601f19603f3d011682016040523d82523d6000602084013e61229d565b606091505b5080516000036122bf5760405162461bcd60e51b815260040161084e90613528565b805181602001fd5b6001600160e01b031916630a85bd0160e11b1490506118b5565b506001949350505050565b6122f683836126c4565b61230360008484846121eb565b6108ef5760405162461bcd60e51b815260040161084e90613528565b60006001600160e01b031982166380ac58cd60e01b148061235057506001600160e01b03198216635b5e139f60e01b145b8061071b57506301ffc9a760e01b6001600160e01b031983161461071b565b606061071b6001600160a01b03831660145b606060006123908360026137a1565b61239b90600261376c565b67ffffffffffffffff8111156123b3576123b3612af5565b6040519080825280601f01601f1916602001820160405280156123dd576020820181803683370190505b509050600360fc1b816000815181106123f8576123f8613469565b60200101906001600160f81b031916908160001a905350600f60fb1b8160018151811061242757612427613469565b60200101906001600160f81b031916908160001a905350600061244b8460026137a1565b61245690600161376c565b90505b60018111156124ce576f181899199a1a9b1b9c1cb0b131b232b360811b85600f166010811061248a5761248a613469565b1a60f81b8282815181106124a0576124a0613469565b60200101906001600160f81b031916908160001a90535060049490941c936124c78161387d565b9050612459565b508315610fff5760405162461bcd60e51b815260206004820181905260248201527f537472696e67733a20686578206c656e67746820696e73756666696369656e74604482015260640161084e565b60008181526001830160205260408120546125645750815460018181018455600084815260208082209093018490558454848252828601909352604090209190915561071b565b50600061071b565b60008181526001830160205260408120548015612655576000612590600183613894565b85549091506000906125a490600190613894565b90508181146126095760008660000182815481106125c4576125c4613469565b90600052602060002001549050808760000184815481106125e7576125e7613469565b6000918252602080832090910192909255918252600188019052604090208390555b855486908061261a5761261a6138a7565b60019003818190600052602060002001600090559055856001016000868152602001908152602001600020600090556001935050505061071b565b600091505061071b565b612668816120c0565b6040516001600160a01b038216907fbc7cd75a20ee27fd9adebab32041f755214dbc6bffa90cc0225b39da2e5c2d3b90600090a250565b6060610fff838360405180606001604052806027815260200161393a6027913961284f565b6001600160a01b03821661271a5760405162461bcd60e51b815260206004820181905260248201527f4552433732313a206d696e7420746f20746865207a65726f2061646472657373604482015260640161084e565b6000818152606760205260409020546001600160a01b03161561277f5760405162461bcd60e51b815260206004820152601c60248201527f4552433732313a20746f6b656e20616c7265616479206d696e74656400000000604482015260640161084e565b6000818152606760205260409020546001600160a01b0316156127e45760405162461bcd60e51b815260206004820152601c60248201527f4552433732313a20746f6b656e20616c7265616479206d696e74656400000000604482015260640161084e565b6001600160a01b038216600081815260686020908152604080832080546001019055848352606790915280822080546001600160a01b0319168417905551839291907fddf252ad1be2c89b69c2b068fc378daa952ba7f163c4a11628f55a4df523b3ef908290a45050565b6060600080856001600160a01b03168560405161286c91906138bd565b600060405180830381855af49150503d80600081146128a7576040519150601f19603f3d011682016040523d82523d6000602084013e6128ac565b606091505b50915091506128bd868383876128c7565b9695505050505050565b6060831561293657825160000361292f576001600160a01b0385163b61292f5760405162461bcd60e51b815260206004820152601d60248201527f416464726573733a2063616c6c20746f206e6f6e2d636f6e7472616374000000604482015260640161084e565b50816118b5565b6118b5838381511561294b5781518083602001fd5b8060405162461bcd60e51b815260040161084e91906129e8565b6001600160e01b031981168114610b9857600080fd5b60006020828403121561298d57600080fd5b8135610fff81612965565b60005b838110156129b357818101518382015260200161299b565b50506000910152565b600081518084526129d4816020860160208601612998565b601f01601f19169290920160200192915050565b602081526000610fff60208301846129bc565b600060208284031215612a0d57600080fd5b5035919050565b80356001600160a01b0381168114612a2b57600080fd5b919050565b60008060408385031215612a4357600080fd5b612a4c83612a14565b946020939093013593505050565b600080600080600060808688031215612a7257600080fd5b612a7b86612a14565b9450612a8960208701612a14565b935060408601359250606086013567ffffffffffffffff80821115612aad57600080fd5b818801915088601f830112612ac157600080fd5b813581811115612ad057600080fd5b896020828501011115612ae257600080fd5b9699959850939650602001949392505050565b634e487b7160e01b600052604160045260246000fd5b6040516060810167ffffffffffffffff81118282101715612b2e57612b2e612af5565b60405290565b600082601f830112612b4557600080fd5b813567ffffffffffffffff80821115612b6057612b60612af5565b604051601f8301601f19908116603f01168101908282118183101715612b8857612b88612af5565b81604052838152866020858801011115612ba157600080fd5b836020870160208301376000602085830101528094505050505092915050565b600060208284031215612bd357600080fd5b813567ffffffffffffffff811115612bea57600080fd5b6118b584828501612b34565b600080600060608486031215612c0b57600080fd5b612c1484612a14565b9250612c2260208501612a14565b9150604084013590509250925092565b60008060408385031215612c4557600080fd5b82359150612c5560208401612a14565b90509250929050565b600060208284031215612c7057600080fd5b610fff82612a14565b60008060408385031215612c8c57600080fd5b612c9583612a14565b9150602083013567ffffffffffffffff811115612cb157600080fd5b612cbd85828601612b34565b9150509250929050565b60008060408385031215612cda57600080fd5b50508035926020909101359150565b60008060408385031215612cfc57600080fd5b612d0583612a14565b915060208301358015158114612d1a57600080fd5b809150509250929050565b60008060008060808587031215612d3b57600080fd5b612d4485612a14565b9350612d5260208601612a14565b925060408501359150606085013567ffffffffffffffff811115612d7557600080fd5b612d8187828801612b34565b91505092959194509250565b60008060408385031215612da057600080fd5b82359150602083013567ffffffffffffffff80821115612dbf57600080fd5b9084019060608287031215612dd357600080fd5b612ddb612b0b565b823582811115612dea57600080fd5b612df688828601612b34565b825250602083013582811115612e0b57600080fd5b612e1788828601612b34565b602083015250604083013582811115612e2f57600080fd5b612e3b88828601612b34565b6040830152508093505050509250929050565b60008060408385031215612e6157600080fd5b612e6a83612a14565b9150612c5560208401612a14565b60006020808301818452808551808352604092508286019150828160051b87010184880160005b83811015612f0b57603f19898403018552815160608151818652612ec5828701826129bc565b915050888201518582038a870152612edd82826129bc565b91505087820151915084810388860152612ef781836129bc565b968901969450505090860190600101612e9f565b509098975050505050505050565b600181811c90821680612f2d57607f821691505b602082108103612f4d57634e487b7160e01b600052602260045260246000fd5b50919050565b601f8211156108ef57600081815260208120601f850160051c81016020861015612f7a5750805b601f850160051c820191505b81811015612f9957828155600101612f86565b505050505050565b815167ffffffffffffffff811115612fbb57612fbb612af5565b612fcf81612fc98454612f19565b84612f53565b602080601f8311600181146130045760008415612fec5750858301515b600019600386901b1c1916600185901b178555612f99565b600085815260208120601f198616915b8281101561303357888601518255948401946001909101908401613014565b50858210156130515787850151600019600388901b60f8161c191681555b5050505050600190811b01905550565b60408152600061307460408301856129bc565b828103602084015261308681856129bc565b95945050505050565b6020808252602d908201527f4552433732313a2063616c6c6572206973206e6f7420746f6b656e206f776e6560408201526c1c881bdc88185c1c1c9bdd9959609a1b606082015260800190565b6020808252602c908201527f46756e6374696f6e206d7573742062652063616c6c6564207468726f7567682060408201526b19195b1959d85d1958d85b1b60a21b606082015260800190565b6020808252602c908201527f46756e6374696f6e206d7573742062652063616c6c6564207468726f7567682060408201526b6163746976652070726f787960a01b606082015260800190565b634e487b7160e01b600052601160045260246000fd5b60006001820161319c5761319c613174565b5060010190565b600081546131b081612f19565b600182811680156131c857600181146131dd5761320c565b60ff198416875282151583028701945061320c565b8560005260208060002060005b858110156132035781548a8201529084019082016131ea565b50505082870194505b5050505092915050565b693d913730b6b2911d101160b11b8152855160009061323c81600a850160208b01612998565b72111610113232b9b1b934b83a34b7b7111d101160691b600a91840191820152613269601d8201886131a3565b6c1116101134b6b0b3b2911d101160991b8152865190915061329281600d840160208a01612998565b741116101132bc3a32b93730b62fb634b735911d101160591b600d92909101918201526132c260228201866131a3565b90507f222c202261747472696275746573223a205b7b2274726169745f74797065223a81527f20226578706c616e6174696f6e222c202276616c7565223a2022000000000000602082015261331a603a8201856131a3565b63227d5d7d60e01b815260040198975050505050505050565b7f646174613a6170706c69636174696f6e2f6a736f6e3b6261736536342c00000081526000825161336b81601d850160208701612998565b91909101601d0192915050565b693d913730b6b2911d101160b11b8152845160009061339e81600a850160208a01612998565b72111610113232b9b1b934b83a34b7b7111d101160691b600a9184019182015285516133d181601d840160208a01612998565b7f2069732061204c61746572616c205468696e6b696e672050757a7a6c652e222c601d92909101918201526a101134b6b0b3b2911d101160a91b603d8201528451613423816048840160208901612998565b741116101132bc3a32b93730b62fb634b735911d101160591b60489290910191820152613453605d8201856131a3565b61227d60f01b8152600201979650505050505050565b634e487b7160e01b600052603260045260246000fd5b60208082526025908201527f4552433732313a207472616e736665722066726f6d20696e636f72726563742060408201526437bbb732b960d91b606082015260800190565b6000602082840312156134d657600080fd5b5051919050565b6020808252602b908201527f496e697469616c697a61626c653a20636f6e7472616374206973206e6f74206960408201526a6e697469616c697a696e6760a81b606082015260800190565b60208082526032908201527f4552433732313a207472616e7366657220746f206e6f6e20455243373231526560408201527131b2b4bb32b91034b6b83632b6b2b73a32b960711b606082015260800190565b7f3c73766720786d6c6e733d27687474703a2f2f7777772e77332e6f72672f323081527f30302f73766727207072657365727665417370656374526174696f3d27784d6960208201527f6e594d696e206d656574272076696577426f783d27302030203335302033353060408201527f273e3c7374796c653e2e62617365207b2066696c6c3a2077686974653b20666f60608201527f6e742d66616d696c793a2073657269663b20666f6e742d73697a653a2032347060808201527f783b207d3c2f7374796c653e3c726563742077696474683d273130302527206860a08201527f65696768743d2731303025272066696c6c3d27626c61636b27202f3e3c74657860c08201527f7420783d273530252720793d273530252720636c6173733d276261736527206460e08201527f6f6d696e616e742d626173656c696e653d276d6964646c652720746578742d616101008201526e3731b437b91e93b6b4b2323632939f60891b610120820152600061012f83516136fe8183860160208801612998565b830161371b8282016c1e17ba32bc3a1f1e17b9bb339f60991b9052565b61013c01949350505050565b7f646174613a696d6167652f7376672b786d6c3b6261736536342c00000000000081526000825161375f81601a850160208701612998565b91909101601a0192915050565b8082018082111561071b5761071b613174565b60008261379c57634e487b7160e01b600052601260045260246000fd5b500490565b808202811582820484141761071b5761071b613174565b7f416363657373436f6e74726f6c3a206163636f756e74200000000000000000008152600083516137f0816017850160208801612998565b7001034b99036b4b9b9b4b733903937b6329607d1b6017918401918201528351613821816028840160208801612998565b01602801949350505050565b6001600160a01b03858116825284166020820152604081018390526080606082018190526000906128bd908301846129bc565b60006020828403121561387257600080fd5b8151610fff81612965565b60008161388c5761388c613174565b506000190190565b8181038181111561071b5761071b613174565b634e487b7160e01b600052603160045260246000fd5b600082516138cf818460208701612998565b919091019291505056fe360894a13ba1a3210667c828492db98dca3e2076cc3735a920a3ca505d382bbc4142434445464748494a4b4c4d4e4f505152535455565758595a6162636465666768696a6b6c6d6e6f707172737475767778797a303132333435363738392b2f416464726573733a206c6f772d6c6576656c2064656c65676174652063616c6c206661696c6564a264697066735822122094bd251f2bf69cf4484f3abe086548ba173ee7bb4fc532c86221964581a09d7064736f6c63430008120033",
  "linkReferences": {},
  "deployedLinkReferences": {}
}